{"abi":[{"type":"constructor","inputs":[{"name":"_prover","type":"address","internalType":"address"},{"name":"_successAddress","type":"address","internalType":"address"},{"name":"_failureAddress","type":"address","internalType":"address"},{"name":"_athleteId","type":"int256","internalType":"int256"},{"name":"_maxTime","type":"int256","internalType":"int256"},{"name":"_deadline","type":"uint256","internalType":"uint256"}],"stateMutability":"nonpayable"},{"type":"fallback","stateMutability":"payable"},{"type":"function","name":"athleteId","inputs":[],"outputs":[{"name":"","type":"int256","internalType":"int256"}],"stateMutability":"view"},{"type":"function","name":"deadline","inputs":[],"outputs":[{"name":"","type":"uint256","internalType":"uint256"}],"stateMutability":"view"},{"type":"function","name":"failureAddress","inputs":[],"outputs":[{"name":"","type":"address","internalType":"address"}],"stateMutability":"view"},{"type":"function","name":"maxTime","inputs":[],"outputs":[{"name":"","type":"int256","internalType":"int256"}],"stateMutability":"view"},{"type":"function","name":"prover","inputs":[],"outputs":[{"name":"","type":"address","internalType":"address"}],"stateMutability":"view"},{"type":"function","name":"shiftOffset","inputs":[{"name":"data","type":"bytes","internalType":"bytes"},{"name":"shiftBy","type":"uint256","internalType":"uint256"},{"name":"offsetPosition","type":"uint256","internalType":"uint256"}],"outputs":[{"name":"","type":"bytes","internalType":"bytes"}],"stateMutability":"pure"},{"type":"function","name":"successAddress","inputs":[],"outputs":[{"name":"","type":"address","internalType":"address"}],"stateMutability":"view"},{"type":"function","name":"timeoutClaim","inputs":[],"outputs":[],"stateMutability":"nonpayable"},{"type":"function","name":"verifier","inputs":[],"outputs":[{"name":"","type":"address","internalType":"contract IProofVerifier"}],"stateMutability":"view"},{"type":"function","name":"verify","inputs":[{"name":"","type":"tuple","internalType":"struct Proof","components":[{"name":"seal","type":"tuple","internalType":"struct Seal","components":[{"name":"verifierSelector","type":"bytes4","internalType":"bytes4"},{"name":"seal","type":"bytes32[8]","internalType":"bytes32[8]"},{"name":"mode","type":"uint8","internalType":"enum ProofMode"}]},{"name":"callGuestId","type":"bytes32","internalType":"bytes32"},{"name":"length","type":"uint256","internalType":"uint256"},{"name":"callAssumptions","type":"tuple","internalType":"struct CallAssumptions","components":[{"name":"proverContractAddress","type":"address","internalType":"address"},{"name":"functionSelector","type":"bytes4","internalType":"bytes4"},{"name":"settleBlockNumber","type":"uint256","internalType":"uint256"},{"name":"settleBlockHash","type":"bytes32","internalType":"bytes32"}]}]},{"name":"time","type":"int256","internalType":"int256"},{"name":"athleteId","type":"int256","internalType":"int256"}],"outputs":[],"stateMutability":"nonpayable"},{"type":"error","name":"InvalidChainId","inputs":[]}],"bytecode":{"object":"0x608060405234801561001057600080fd5b50604051615b13380380615b1383398101604081905261002f916101d5565b61003761009c565b600080546001600160a01b039283166001600160a01b0319918216179091556001805498831698821698909817909755600280549682169688169690961790955560038054949095169390951692909217909255600491909155600555600655610237565b60006100a6610110565b156100b15750600090565b46617a6914806100c457506100c4610161565b156100f7576040516100d5906101ac565b604051809103906000f0801580156100f1573d6000803e3d6000fd5b50905090565b604051633d23e4d160e11b815260040160405180910390fd5b60004660011480610121575046600a145b8061012d575046612105145b8061013957504661a4b1145b8061014557504661a4ba145b806101505750466089145b8061015c575046610144145b905090565b60004662aa36a7148061017657504662aa37dc145b8061018357504662014a34145b8061019057504662013882145b8061019d57504662066eee145b8061015c57505061012c461490565b614aa88061106b83390190565b80516001600160a01b03811681146101d057600080fd5b919050565b60008060008060008060c087890312156101ee57600080fd5b6101f7876101b9565b9550610205602088016101b9565b9450610213604088016101b9565b6060880151608089015160a090990151979a96995090979096909590945092505050565b610e25806102466000396000f3fe60806040526004361061008e5760003560e01c8063637b8b6511610056578063637b8b65146101475780637b1e5d751461015d578063d729ca721461017d578063de6deb2b1461019d578063e5e22773146101b257005b80630fe9bb9a1461009057806322e67e71146100cd57806329dcb0cf146100f15780632b7ac3f31461010757806332a8f30f14610127575b005b34801561009c57600080fd5b506002546100b0906001600160a01b031681565b6040516001600160a01b0390911681526020015b60405180910390f35b3480156100d957600080fd5b506100e360055481565b6040519081526020016100c4565b3480156100fd57600080fd5b506100e360065481565b34801561011357600080fd5b506000546100b0906001600160a01b031681565b34801561013357600080fd5b506001546100b0906001600160a01b031681565b34801561015357600080fd5b506100e360045481565b34801561016957600080fd5b5061008e6101783660046108a8565b6101df565b34801561018957600080fd5b506003546100b0906001600160a01b031681565b3480156101a957600080fd5b5061008e6102f6565b3480156101be57600080fd5b506101d26101cd36600461099d565b6103db565b6040516100c49190610a69565b6001546001600160a01b031663c822d5ef60e01b6101fd8282610478565b6005548413156102545760405162461bcd60e51b815260206004820152601c60248201527f54696d652069732067726561746572207468616e206d617854696d650000000060448201526064015b60405180910390fd5b6002546040516000916001600160a01b03169047908381818185875af1925050503d80600081146102a1576040519150601f19603f3d011682016040523d82523d6000602084013e6102a6565b606091505b50509050806102ee5760405162461bcd60e51b81526020600482015260146024820152732330b4b632b2103a379039b2b7321022ba3432b960611b604482015260640161024b565b505050505050565b600654421161033e5760405162461bcd60e51b8152602060048201526014602482015273111958591b1a5b99481b9bdd081c995858da195960621b604482015260640161024b565b6003546040516000916001600160a01b03169047908381818185875af1925050503d806000811461038b576040519150601f19603f3d011682016040523d82523d6000602084013e610390565b606091505b50509050806103d85760405162461bcd60e51b81526020600482015260146024820152732330b4b632b2103a379039b2b7321022ba3432b960611b604482015260640161024b565b50565b60606000826020806103ed8180610ab2565b6103f79190610ab2565b6104019190610ab2565b61040b9190610ab2565b905080855110156104575760405162461bcd60e51b8152602060048201526016602482015275115b98dbd919590819185d18481d1bdbc81cda1bdc9d60521b604482015260640161024b565b8481015160006104678683610acb565b928701929092525093949350505050565b6000806104836104f3565b6000546040516312f238c760e21b81529294509092506001600160a01b031690634bc8e31c906104bd908590859089908990600401610b9b565b60006040518083038186803b1580156104d557600080fd5b505afa1580156104e9573d6000803e3d6000fd5b5050505050505050565b6104fb610816565b60008061050b3660048184610bdb565b8101906105189190610c8e565b905060006020806105298180610ab2565b6105339190610ab2565b61053d9190610ab2565b6020808061054d61010082610ab2565b6105579190610ab2565b6105619190610ab2565b61056b9190610ab2565b610576906004610ab2565b6105809190610ab2565b905060006020806105918180610ab2565b61059b9190610ab2565b6105a59190610ab2565b6020806105b28180610ab2565b6105bc9190610ab2565b6105c69190610ab2565b602080806105d661010082610ab2565b6105e09190610ab2565b6105ea9190610ab2565b6105f49190610ab2565b6105fe9190610ab2565b846040015161060d9190610acb565b6106179190610acb565b905060006106258284610ab2565b9050600080366020808061063b61010082610ab2565b6106459190610ab2565b61064f9190610ab2565b6106599190610ab2565b610664906004610ab2565b906020806106728180610ab2565b61067c9190610ab2565b6106869190610ab2565b6020808061069661010082610ab2565b6106a09190610ab2565b6106aa9190610ab2565b6106b49190610ab2565b6106bf906004610ab2565b6106c99190610ab2565b926106d693929190610bdb565b8080601f016020809104026020016040519081016040528093929190818152602001838380828437600092018290525093945061071b92508591508790503684610bdb565b8080601f016020809104026020016040519081016040528093929190818152602001838380828437600092018290525093945085925061075d91506108019050565b60405160200161076d9190610d68565b60408051601f198184030181529082905261078d92918590602001610d77565b604051602081830303815290604052905060006002826040516107b09190610dba565b602060405180830381855afa1580156107cd573d6000803e3d6000fd5b5050506040513d601f19601f820116820180604052508101906107f09190610dd6565b979a97995096975050505050505050565b610809610816565b610811610816565b919050565b6040518060800160405280610829610862565b81526000602080830182905260408084018390528051608081018252838152918201839052810182905260608181019290925291015290565b6040805160608101909152600081526020810161087d610889565b81526020016000905290565b6040518061010001604052806008906020820280368337509192915050565b60008060008385036102408112156108bf57600080fd5b6102008112156108ce57600080fd5b50929461020086013594506102208601359350915050565b634e487b7160e01b600052604160045260246000fd5b6040516080810167ffffffffffffffff8111828210171561091f5761091f6108e6565b60405290565b6040516060810167ffffffffffffffff8111828210171561091f5761091f6108e6565b604051610100810167ffffffffffffffff8111828210171561091f5761091f6108e6565b604051601f8201601f1916810167ffffffffffffffff81118282101715610995576109956108e6565b604052919050565b6000806000606084860312156109b257600080fd5b833567ffffffffffffffff8111156109c957600080fd5b8401601f810186136109da57600080fd5b803567ffffffffffffffff8111156109f4576109f46108e6565b610a07601f8201601f191660200161096c565b818152876020838501011115610a1c57600080fd5b816020840160208301376000602092820183015297908601359650604090950135949350505050565b60005b83811015610a60578181015183820152602001610a48565b50506000910152565b6020815260008251806020840152610a88816040850160208701610a45565b601f01601f19169190910160400192915050565b634e487b7160e01b600052601160045260246000fd5b80820180821115610ac557610ac5610a9c565b92915050565b81810381811115610ac557610ac5610a9c565b805180516001600160e01b031916835260208082015190840160005b6008811015610b19578251825260209283019290910190600101610afa565b5050506040015160028110610b3e57634e487b7160e01b600052602160045260246000fd5b61012083015260208181015161014084015260408083015161016085015260609283015180516001600160a01b0316610180860152918201516001600160e01b0319166101a08501528101516101c084015201516101e090910152565b6102608101610baa8287610ade565b6102008201949094526001600160a01b03929092166102208301526001600160e01b03191661024090910152919050565b60008085851115610beb57600080fd5b83861115610bf857600080fd5b5050820193919092039150565b80356001600160e01b03198116811461081157600080fd5b80356002811061081157600080fd5b600060808284031215610c3e57600080fd5b610c466108fc565b905081356001600160a01b0381168114610c5f57600080fd5b8152610c6d60208301610c05565b60208201526040828101359082015260609182013591810191909152919050565b600081830361020081128015610ca357600080fd5b506000610cae6108fc565b610140831215610cbc578182fd5b610cc4610925565b9250610ccf85610c05565b835285603f860112610cdf578182fd5b610ce7610948565b80610120870188811115610cf9578485fd5b602088015b81811015610d16578035845260209384019301610cfe565b50816020870152610d2681610c1d565b6040878101919091529584525050506101408501356020820152610160850135928101839052610d5a866101808701610c2c565b606082015295945050505050565b6102008101610ac58284610ade565b60008451610d89818460208901610a45565b845190830190610d9d818360208901610a45565b8451910190610db0818360208801610a45565b0195945050505050565b60008251610dcc818460208701610a45565b9190910192915050565b600060208284031215610de857600080fd5b505191905056fea2646970667358221220192ac8c3f6c39ef33c456a6037275b1ed66b9a95421f37c4393ca0cf4de0a70664736f6c634300081a00336080604052604051600e9060a0565b604051809103906000f0801580156029573d6000803e3d6000fd5b50600080546001600160a01b0319166001600160a01b039290921691909117905560405160549060ad565b604051809103906000f080158015606f573d6000803e3d6000fd5b50600180546001600160a01b0319166001600160a01b0392909216919091179055348015609b57600080fd5b5060ba565b6114948061061183390190565b61300380611aa583390190565b610548806100c96000396000f3fe608060405234801561001057600080fd5b506004361061004c5760003560e01c80634bc8e31c146100515780634e8f939614610066578063a01b86d314610081578063bf877a43146100ac575b600080fd5b61006461005f366004610299565b6100bf565b005b61006e6101f2565b6040519081526020015b60405180910390f35b600054610094906001600160a01b031681565b6040516001600160a01b039091168152602001610078565b600154610094906001600160a01b031681565b60016100da6100d33687900387018761037b565b6040015190565b60018111156100eb576100eb6102f3565b0361015b576000546040516312f238c760e21b81526001600160a01b0390911690634bc8e31c9061012690879087908790879060040161040b565b60006040518083038186803b15801561013e57600080fd5b505afa158015610152573d6000803e3d6000fd5b505050506101ec565b600061016f6100d33687900387018761037b565b6001811115610180576101806102f3565b036101ec576001546040516312f238c760e21b81526001600160a01b0390911690634bc8e31c906101bb90879087908790879060040161040b565b60006040518083038186803b1580156101d357600080fd5b505afa1580156101e7573d6000803e3d6000fd5b505050505b50505050565b60015460408051632747c9cb60e11b815290516000926001600160a01b031691634e8f93969160048083019260209291908290030181865afa15801561023c573d6000803e3d6000fd5b505050506040513d601f19601f8201168201806040525081019061026091906104f9565b905090565b80356001600160a01b038116811461027c57600080fd5b919050565b80356001600160e01b03198116811461027c57600080fd5b6000806000808486036102608112156102b157600080fd5b6102008112156102c057600080fd5b5084935061020084013592506102d96102208501610265565b91506102e86102408601610281565b905092959194509250565b634e487b7160e01b600052602160045260246000fd5b634e487b7160e01b600052604160045260246000fd5b6040516060810167ffffffffffffffff8111828210171561034257610342610309565b60405290565b604051610100810167ffffffffffffffff8111828210171561034257610342610309565b80356002811061027c57600080fd5b600061014082840312801561038f57600080fd5b50600061039a61031f565b6103a384610281565b815284603f8501126103b3578182fd5b6103bb610348565b806101208601878111156103cd578485fd5b602087015b818110156103ea5780358452602093840193016103d2565b508160208501526103fa8161036c565b604085015250919695505050505050565b61026081016001600160e01b031961042287610281565b16825261010060208701602084013761043e610120870161036c565b6002811061045c57634e487b7160e01b600052602160045260246000fd5b610120830152610140868101359083015261016080870135908301526001600160a01b0361048d6101808801610265565b166101808301526001600160e01b03196104aa6101a08801610281565b166101a08301526101c086810135908301526101e0808701359083015261020082018590526001600160a01b0384166102208301526001600160e01b0319831661024083015295945050505050565b60006020828403121561050b57600080fd5b505191905056fea2646970667358221220c562a267074edfddae622c179d4ba69a4665aef785120dec98f019aa8dd929b864736f6c634300081a003360e060405234801561001057600080fd5b507f55e7e1e217049329023a9deda94db11b3afeaf8393c2ec0820b318c7021077c960c05261003d6100b4565b1561005b57604051633d23e4d160e11b815260040160405180910390fd5b60405163deafbeef60e01b9061007090610105565b6001600160e01b03199091168152602001604051809103906000f08015801561009d573d6000803e3d6000fd5b506001600160a01b031660a0526001608052610112565b600046600114806100c5575046600a145b806100d1575046612105145b806100dd57504661a4b1145b806100e957504661a4ba145b806100f45750466089145b80610100575046610144145b905090565b6109e180610ab383390190565b60805160a05160c0516109526101616000396000818160b70152818160ea015281816101b801526104a30152600081816061015261017a015260008181610111015261022e01526109526000f3fe608060405234801561001057600080fd5b50600436106100575760003560e01c806308c84e701461005c5780634bc8e31c146100a05780634e8f9396146100b55780638d98dea9146100e55780639a44ea841461010c575b600080fd5b6100837f000000000000000000000000000000000000000000000000000000000000000081565b6040516001600160a01b0390911681526020015b60405180910390f35b6100b36100ae3660046105cd565b610140565b005b7f00000000000000000000000000000000000000000000000000000000000000005b604051908152602001610097565b6100d77f000000000000000000000000000000000000000000000000000000000000000081565b6101337f000000000000000000000000000000000000000000000000000000000000000081565b604051610097919061063d565b61015761015236869003860186610787565b61022c565b61017061016936869003860186610787565b83836102bf565b6001600160a01b037f00000000000000000000000000000000000000000000000000000000000000001663ab750e756101b66101b13688900388018861082f565b610512565b7f0000000000000000000000000000000000000000000000000000000000000000866040518463ffffffff1660e01b81526004016101f693929190610853565b60006040518083038186803b15801561020e57600080fd5b505afa158015610222573d6000803e3d6000fd5b5050505050505050565b7f0000000000000000000000000000000000000000000000000000000000000000600181111561025e5761025e610627565b815160400151600181111561027557610275610627565b146102bc5760405162461bcd60e51b8152602060048201526012602482015271496e76616c69642070726f6f66206d6f646560701b60448201526064015b60405180910390fd5b50565b816001600160a01b03168360600151600001516001600160a01b0316146103195760405162461bcd60e51b815260206004820152600e60248201526d24b73b30b634b210383937bb32b960911b60448201526064016102b3565b806001600160e01b0319168360600151602001516001600160e01b031916146103775760405162461bcd60e51b815260206004820152601060248201526f24b73b30b634b21039b2b632b1ba37b960811b60448201526064016102b3565b43836060015160400151106103de5760405162461bcd60e51b815260206004820152602760248201527f496e76616c696420626c6f636b206e756d6265723a20626c6f636b2066726f6d6044820152662066757475726560c81b60648201526084016102b3565b436101008460600151604001516103f591906108af565b101561044f5760405162461bcd60e51b815260206004820152602360248201527f496e76616c696420626c6f636b206e756d6265723a20626c6f636b20746f6f206044820152621bdb1960ea1b60648201526084016102b3565b60608084015160408101519101519040146104a15760405162461bcd60e51b8152602060048201526012602482015271092dcecc2d8d2c840c4d8dec6d640d0c2e6d60731b60448201526064016102b3565b7f000000000000000000000000000000000000000000000000000000000000000083602001511461050d5760405162461bcd60e51b815260206004820152601660248201527510d85b1b11dd595cdd1259081b5a5cdb585d18da195960521b60448201526064016102b3565b505050565b606060018260400151600181111561052c5761052c610627565b0361056d5750602081810151519151604080516001600160e01b03199092169282019290925260248082019390935281518082039093018352604401905290565b81516020808401516040516105839392016108d6565b6040516020818303038152906040529050919050565b919050565b80356001600160a01b038116811461059957600080fd5b80356001600160e01b03198116811461059957600080fd5b6000806000808486036102608112156105e557600080fd5b6102008112156105f457600080fd5b50849350610200840135925061060d610220850161059e565b915061061c61024086016105b5565b905092959194509250565b634e487b7160e01b600052602160045260246000fd5b602081016002831061065f57634e487b7160e01b600052602160045260246000fd5b91905290565b634e487b7160e01b600052604160045260246000fd5b6040516060810167ffffffffffffffff8111828210171561069e5761069e610665565b60405290565b604051610100810167ffffffffffffffff8111828210171561069e5761069e610665565b6040516080810167ffffffffffffffff8111828210171561069e5761069e610665565b80356002811061059957600080fd5b6000610140828403121561070d57600080fd5b61071561067b565b9050610720826105b5565b815282603f83011261073157600080fd5b6107396106a4565b8061012084018581111561074c57600080fd5b602085015b81811015610769578035845260209384019301610751565b50816020850152610779816106eb565b604085015250505092915050565b60008183036102008112801561079c57600080fd5b5060006107a76106c8565b6107b186866106fa565b815261014085013560208201526101608501356040820152608061017f19840112156107db578182fd5b6107e36106c8565b92506107f2610180860161059e565b83526108016101a086016105b5565b60208401526101c085013560408401526101e090940135606080840191909152840191909152509092915050565b6000610140828403121561084257600080fd5b61084c83836106fa565b9392505050565b606081526000845180606084015260005b818110156108815760208188018101516080868401015201610864565b506000608082850101526080601f19601f830116840101915050836020830152826040830152949350505050565b808201808211156108d057634e487b7160e01b600052601160045260246000fd5b92915050565b6001600160e01b03198316815260006004820183825b600881101561090b5781518352602092830192909101906001016108ec565b50505061010482019050939250505056fea2646970667358221220998558b058213c84a0c66924f9bbf1070b9d54b21a71fc071a6d0ae41c24614764736f6c634300081a003360a0604052348015600f57600080fd5b506040516109e13803806109e1833981016040819052602c91603d565b6001600160e01b031916608052606c565b600060208284031215604e57600080fd5b81516001600160e01b031981168114606557600080fd5b9392505050565b60805161094761009a6000396000818160610152818160ee015281816101fa015261025f01526109476000f3fe608060405234801561001057600080fd5b50600436106100575760003560e01c8063053c238d1461005c5780631599ead5146100a15780633a115bb1146100b657806366cf0e4b14610149578063ab750e751461015c575b600080fd5b6100837f000000000000000000000000000000000000000000000000000000000000000081565b6040516001600160e01b031990911681526020015b60405180910390f35b6100b46100af3660046106a5565b61016f565b005b61013c6100c43660046106e0565b604080518082019091526060815260006020820152604080518082019091526001600160e01b03197f000000000000000000000000000000000000000000000000000000000000000016606082015260648101839052806084810160408051601f198184030181529190528152602001929092525090565b604051610098919061071d565b61013c610157366004610763565b610189565b6100b461016a366004610785565b6101ba565b61018661017c8280610806565b83602001356101d7565b50565b6040805180820190915260608152600060208201526101b36100c46101ae85856102fc565b610463565b9392505050565b6101d184846101cc6101ae86866102fc565b6101d7565b50505050565b6101e5600460008486610854565b6101ee9161087e565b6001600160e01b0319167f00000000000000000000000000000000000000000000000000000000000000006001600160e01b0319161461029257610236600460008486610854565b61023f9161087e565b604051632e2ce35360e21b81526001600160e01b031991821660048201527f0000000000000000000000000000000000000000000000000000000000000000909116602482015260440160405180910390fd5b60408051602081018390520160408051601f1981840301815291905280516020909101206102c38360048187610854565b6040516102d19291906108b6565b6040518091039020146102f75760405163439cc0cd60e01b815260040160405180910390fd5b505050565b610304610660565b6040518060a0016040528084815260200160028060405161033c907072697363302e53797374656d537461746560781b815260110190565b602060405180830381855afa158015610359573d6000803e3d6000fd5b5050506040513d601f19601f8201168201806040525081019061037c91906108c6565b60408051602081019290925260009082018190526060820152600160f81b606482015260660160408051601f19818403018152908290526103bc916108df565b602060405180830381855afa1580156103d9573d6000803e3d6000fd5b5050506040513d601f19601f820116820180604052508101906103fc91906108c6565b815260200160405180604001604052806000600281111561041f5761041f6108fb565b8152602001600060ff1681525081526020016000801b815260200161045a60405180604001604052808681526020016000801b8152506105c8565b90529392505050565b600060028060405161048d907172697363302e52656365697074436c61696d60701b815260120190565b602060405180830381855afa1580156104aa573d6000803e3d6000fd5b5050506040513d601f19601f820116820180604052508101906104cd91906108c6565b606084015184516020860151608087015160408801515160189060028111156104f8576104f86108fb565b60408a810151602090810151825191820199909952908101969096526060860194909452608085019290925260a084015263ffffffff909116901b60e01b6001600160e01b03191660c082015260f89190911b6001600160f81b03191660c4820152600160fa1b60c882015260ca015b60408051601f1981840301815290829052610582916108df565b602060405180830381855afa15801561059f573d6000803e3d6000fd5b5050506040513d601f19601f820116820180604052508101906105c291906108c6565b92915050565b60006002806040516105ec906b1c9a5cd8cc0b93dd5d1c1d5d60a21b8152600c0190565b602060405180830381855afa158015610609573d6000803e3d6000fd5b5050506040513d601f19601f8201168201806040525081019061062c91906108c6565b83516020808601516040805192830194909452928101919091526060810191909152600160f91b6080820152608201610568565b6040805160a08101825260008082526020820152908101610691604080518082019091526000808252602082015290565b815260006020820181905260409091015290565b6000602082840312156106b757600080fd5b813567ffffffffffffffff8111156106ce57600080fd5b8201604081850312156101b357600080fd5b6000602082840312156106f257600080fd5b5035919050565b60005b838110156107145781810151838201526020016106fc565b50506000910152565b60208152600082516040602084015280518060608501526107458160808601602085016106f9565b60209490940151604084015250506080601f909201601f1916010190565b6000806040838503121561077657600080fd5b50508035926020909101359150565b6000806000806060858703121561079b57600080fd5b843567ffffffffffffffff8111156107b257600080fd5b8501601f810187136107c357600080fd5b803567ffffffffffffffff8111156107da57600080fd5b8760208284010111156107ec57600080fd5b602091820198909750908601359560400135945092505050565b6000808335601e1984360301811261081d57600080fd5b83018035915067ffffffffffffffff82111561083857600080fd5b60200191503681900382131561084d57600080fd5b9250929050565b6000808585111561086457600080fd5b8386111561087157600080fd5b5050820193919092039150565b80356001600160e01b031981169060048410156108af576001600160e01b0319600485900360031b81901b82161691505b5092915050565b8183823760009101908152919050565b6000602082840312156108d857600080fd5b5051919050565b600082516108f18184602087016106f9565b9190910192915050565b634e487b7160e01b600052602160045260246000fdfea26469706673582212202ea46d8ddebd1444096d06c354aa8c3c729e0a49c8083cd16285d9e08305fda764736f6c634300081a003360e060405234801561001057600080fd5b507f55e7e1e217049329023a9deda94db11b3afeaf8393c2ec0820b318c7021077c960c05260006080526040517fa516a057c9fbf5629106300934d48e0e775d4230e41e503347cad96fcbde7e2e907f0eb6febcf06c5df079111be116f79bd8c7e85dc9448776ef9a59aaf2624ab5519061008a906100c3565b9182526020820152604001604051809103906000f0801580156100b1573d6000803e3d6000fd5b506001600160a01b031660a0526100d0565b61259280610a7183390190565b60805160a05160c05161095261011f6000396000818160b70152818160ea015281816101b801526104a30152600081816061015261017a015260008181610111015261022e01526109526000f3fe608060405234801561001057600080fd5b50600436106100575760003560e01c806308c84e701461005c5780634bc8e31c146100a05780634e8f9396146100b55780638d98dea9146100e55780639a44ea841461010c575b600080fd5b6100837f000000000000000000000000000000000000000000000000000000000000000081565b6040516001600160a01b0390911681526020015b60405180910390f35b6100b36100ae3660046105cd565b610140565b005b7f00000000000000000000000000000000000000000000000000000000000000005b604051908152602001610097565b6100d77f000000000000000000000000000000000000000000000000000000000000000081565b6101337f000000000000000000000000000000000000000000000000000000000000000081565b604051610097919061063d565b61015761015236869003860186610787565b61022c565b61017061016936869003860186610787565b83836102bf565b6001600160a01b037f00000000000000000000000000000000000000000000000000000000000000001663ab750e756101b66101b13688900388018861082f565b610512565b7f0000000000000000000000000000000000000000000000000000000000000000866040518463ffffffff1660e01b81526004016101f693929190610853565b60006040518083038186803b15801561020e57600080fd5b505afa158015610222573d6000803e3d6000fd5b5050505050505050565b7f0000000000000000000000000000000000000000000000000000000000000000600181111561025e5761025e610627565b815160400151600181111561027557610275610627565b146102bc5760405162461bcd60e51b8152602060048201526012602482015271496e76616c69642070726f6f66206d6f646560701b60448201526064015b60405180910390fd5b50565b816001600160a01b03168360600151600001516001600160a01b0316146103195760405162461bcd60e51b815260206004820152600e60248201526d24b73b30b634b210383937bb32b960911b60448201526064016102b3565b806001600160e01b0319168360600151602001516001600160e01b031916146103775760405162461bcd60e51b815260206004820152601060248201526f24b73b30b634b21039b2b632b1ba37b960811b60448201526064016102b3565b43836060015160400151106103de5760405162461bcd60e51b815260206004820152602760248201527f496e76616c696420626c6f636b206e756d6265723a20626c6f636b2066726f6d6044820152662066757475726560c81b60648201526084016102b3565b436101008460600151604001516103f591906108af565b101561044f5760405162461bcd60e51b815260206004820152602360248201527f496e76616c696420626c6f636b206e756d6265723a20626c6f636b20746f6f206044820152621bdb1960ea1b60648201526084016102b3565b60608084015160408101519101519040146104a15760405162461bcd60e51b8152602060048201526012602482015271092dcecc2d8d2c840c4d8dec6d640d0c2e6d60731b60448201526064016102b3565b7f000000000000000000000000000000000000000000000000000000000000000083602001511461050d5760405162461bcd60e51b815260206004820152601660248201527510d85b1b11dd595cdd1259081b5a5cdb585d18da195960521b60448201526064016102b3565b505050565b606060018260400151600181111561052c5761052c610627565b0361056d5750602081810151519151604080516001600160e01b03199092169282019290925260248082019390935281518082039093018352604401905290565b81516020808401516040516105839392016108d6565b6040516020818303038152906040529050919050565b919050565b80356001600160a01b038116811461059957600080fd5b80356001600160e01b03198116811461059957600080fd5b6000806000808486036102608112156105e557600080fd5b6102008112156105f457600080fd5b50849350610200840135925061060d610220850161059e565b915061061c61024086016105b5565b905092959194509250565b634e487b7160e01b600052602160045260246000fd5b602081016002831061065f57634e487b7160e01b600052602160045260246000fd5b91905290565b634e487b7160e01b600052604160045260246000fd5b6040516060810167ffffffffffffffff8111828210171561069e5761069e610665565b60405290565b604051610100810167ffffffffffffffff8111828210171561069e5761069e610665565b6040516080810167ffffffffffffffff8111828210171561069e5761069e610665565b80356002811061059957600080fd5b6000610140828403121561070d57600080fd5b61071561067b565b9050610720826105b5565b815282603f83011261073157600080fd5b6107396106a4565b8061012084018581111561074c57600080fd5b602085015b81811015610769578035845260209384019301610751565b50816020850152610779816106eb565b604085015250505092915050565b60008183036102008112801561079c57600080fd5b5060006107a76106c8565b6107b186866106fa565b815261014085013560208201526101608501356040820152608061017f19840112156107db578182fd5b6107e36106c8565b92506107f2610180860161059e565b83526108016101a086016105b5565b60208401526101c085013560408401526101e090940135606080840191909152840191909152509092915050565b6000610140828403121561084257600080fd5b61084c83836106fa565b9392505050565b606081526000845180606084015260005b818110156108815760208188018101516080868401015201610864565b506000608082850101526080601f19601f830116840101915050836020830152826040830152949350505050565b808201808211156108d057634e487b7160e01b600052601160045260246000fd5b92915050565b6001600160e01b03198316815260006004820183825b600881101561090b5781518352602092830192909101906001016108ec565b50505061010482019050939250505056fea2646970667358221220ccfc79d973ecc346df8ab03c6bd868f4624c133a7a1af6eb7c747d8f5360adda64736f6c634300081a003361010060405234801561001157600080fd5b5060405161259238038061259283398101604081905261003091611074565b610039826102bf565b6001600160801b031990811660a0521660805260c08190526040517f72697363302e47726f74683136526563656970745665726966696572506172618152656d657465727360d01b60208201526002908190602601602060405180830381855afa1580156100ab573d6000803e3d6000fd5b5050506040513d601f19601f820116820180604052508101906100ce9190611098565b8361021f8460008190506008817eff00ff00ff00ff00ff00ff00ff00ff00ff00ff00ff00ff00ff00ff00ff00ff16901b6008827fff00ff00ff00ff00ff00ff00ff00ff00ff00ff00ff00ff00ff00ff00ff00ff0016901c1790506010817dffff0000ffff0000ffff0000ffff0000ffff0000ffff0000ffff0000ffff16901b6010827fffff0000ffff0000ffff0000ffff0000ffff0000ffff0000ffff0000ffff000016901c1790506020817bffffffff00000000ffffffff00000000ffffffff00000000ffffffff16901b6020827fffffffff00000000ffffffff00000000ffffffff00000000ffffffff0000000016901c17905060408177ffffffffffffffff0000000000000000ffffffffffffffff16901b6040827fffffffffffffffff0000000000000000ffffffffffffffff000000000000000016901c179050608081901b608082901c179050919050565b61022761042d565b60408051602081019590955284019290925260608301526080820152600360f81b60a082015260a20160408051601f198184030181529082905261026a916110e1565b602060405180830381855afa158015610287573d6000803e3d6000fd5b5050506040513d601f19601f820116820180604052508101906102aa9190611098565b6001600160e01b03191660e052506111869050565b600080806104138460008190506008817eff00ff00ff00ff00ff00ff00ff00ff00ff00ff00ff00ff00ff00ff00ff00ff16901b6008827fff00ff00ff00ff00ff00ff00ff00ff00ff00ff00ff00ff00ff00ff00ff00ff0016901c1790506010817dffff0000ffff0000ffff0000ffff0000ffff0000ffff0000ffff0000ffff16901b6010827fffff0000ffff0000ffff0000ffff0000ffff0000ffff0000ffff0000ffff000016901c1790506020817bffffffff00000000ffffffff00000000ffffffff00000000ffffffff16901b6020827fffffffff00000000ffffffff00000000ffffffff00000000ffffffff0000000016901c17905060408177ffffffffffffffff0000000000000000ffffffffffffffff16901b6040827fffffffffffffffff0000000000000000ffffffffffffffff000000000000000016901c179050608081901b608082901c179050919050565b608081901b956001600160801b0319909116945092505050565b60408051600680825260e082019092526000918291906020820160c08036833701905050905060027f12ac9a25dcd5e1a832a9061a082c15dd1d61aa9c4d553505739d0f5d65dc3be47f025aa744581ebe7ad91731911c898569106ff5a2d30f3eee2b23c60ee980acd46040516020016104b1929190918252602082015260400190565b60408051601f19818403018152908290526104cb916110e1565b602060405180830381855afa1580156104e8573d6000803e3d6000fd5b5050506040513d601f19601f8201168201806040525081019061050b9190611098565b8160008151811061051e5761051e6110f4565b60200260200101818152505060027f0707b920bc978c02f292fae2036e057be54294114ccc3c8769d883f688a1423f7f2e32a094b7589554f7bc357bf63481acd2d55555c203383782a4650787ff6642604051602001610588929190918252602082015260400190565b60408051601f19818403018152908290526105a2916110e1565b602060405180830381855afa1580156105bf573d6000803e3d6000fd5b5050506040513d601f19601f820116820180604052508101906105e29190611098565b816001815181106105f5576105f56110f4565b60200260200101818152505060027f0bca36e2cbe6394b3e249751853f961511011c7148e336f4fd974644850fc3477f2ede7c9acf48cf3a3729fa3d68714e2a8435d4fa6db8f7f409c153b1fcdf9b8b60405160200161065f929190918252602082015260400190565b60408051601f1981840301815290829052610679916110e1565b602060405180830381855afa158015610696573d6000803e3d6000fd5b5050506040513d601f19601f820116820180604052508101906106b99190611098565b816002815181106106cc576106cc6110f4565b60200260200101818152505060027f1b8af999dbfbb3927c091cc2aaf201e488cbacc3e2c6b6fb5a25f9112e04f2a77f2b91a26aa92e1b6f5722949f192a81c850d586d81a60157f3e9cf04f679cccd6604051602001610736929190918252602082015260400190565b60408051601f1981840301815290829052610750916110e1565b602060405180830381855afa15801561076d573d6000803e3d6000fd5b5050506040513d601f19601f820116820180604052508101906107909190611098565b816003815181106107a3576107a36110f4565b60200260200101818152505060027f2b5f494ed674235b8ac1750bdfd5a7615f002d4a1dcefeddd06eda5a076ccd0d7f2fe520ad2020aab9cbba817fcbb9a863b8a76ff88f14f912c5e71665b2ad5e8260405160200161080d929190918252602082015260400190565b60408051601f1981840301815290829052610827916110e1565b602060405180830381855afa158015610844573d6000803e3d6000fd5b5050506040513d601f19601f820116820180604052508101906108679190611098565b8160048151811061087a5761087a6110f4565b60200260200101818152505060027f0f1c3c0d5d9da0fa03666843cde4e82e869ba5252fce3c25d5940320b1c4d4937f214bfcff74f425f6fe8c0d07b307482d8bc8bb2f3608f68287aa01bd0b69e8096040516020016108e4929190918252602082015260400190565b60408051601f19818403018152908290526108fe916110e1565b602060405180830381855afa15801561091b573d6000803e3d6000fd5b5050506040513d601f19601f8201168201806040525081019061093e9190611098565b81600581518110610951576109516110f4565b602002602001018181525050600280604051610990907f72697363305f67726f746831362e566572696679696e674b65790000000000008152601a0190565b602060405180830381855afa1580156109ad573d6000803e3d6000fd5b5050506040513d601f19601f820116820180604052508101906109d09190611098565b60027f2d4d9aa7e302d9df41749d5507949d05dbea33fbb16c643b22f599a2be6df2e27f14bedd503c37ceb061d8ec60209fe345ce89830a19230301f076caff004d1926604051602001610a2e929190918252602082015260400190565b60408051601f1981840301815290829052610a48916110e1565b602060405180830381855afa158015610a65573d6000803e3d6000fd5b5050506040513d601f19601f82011682018060405250810190610a889190611098565b604080517f0967032fcbf776d1afc985f88877f182d38480a653f2decaa9794cbc3bf3060c60208201527f0e187847ad4c798374d0d6732bf501847dd68bc0e071241e0213bc7fc13db7ab918101919091527f304cfbd1e08a704a99f5e847d93f8c3caafddec46b7a0d379da69a4d112346a760608201527f1739c1b1a457a8c7313123d24d2f9192f896b7c63eea05a9d57f06547ad0cec8608082015260029060a00160408051601f1981840301815290829052610b46916110e1565b602060405180830381855afa158015610b63573d6000803e3d6000fd5b5050506040513d601f19601f82011682018060405250810190610b869190611098565b604080517f198e9393920d483a7260bfb731fb5d25f1aa493335a9e71297e485b7aef312c260208201527f1800deef121f1e76426a00665e5c4479674322d4f75edadd46debd5cd992f6ed918101919091527f090689d0585ff075ec9e99ad690c3395bc4b313370b38ef355acdadcd122975b60608201527f12c85ea5db8c6deb4aab71808dcb408fe3d1e7690c43d37b4ce6cc0166fa7daa608082015260029060a00160408051601f1981840301815290829052610c44916110e1565b602060405180830381855afa158015610c61573d6000803e3d6000fd5b5050506040513d601f19601f82011682018060405250810190610c849190611098565b604080517f03b03cd5effa95ac9bee94f1f5ef907157bda4812ccf0b4c91f42bb629f83a1c60208201527f1aa085ff28179a12d922dba0547057ccaae94b9d69cfaa4e60401fea7f3e0333918101919091527f110c10134f200b19f6490846d518c9aea868366efb7228ca5c91d2940d03076260608201527f1e60f31fcbf757e837e867178318832d0b2d74d59e2fea1c7142df187d3fc6d3608082015260029060a00160408051601f1981840301815290829052610d42916110e1565b602060405180830381855afa158015610d5f573d6000803e3d6000fd5b5050506040513d601f19601f82011682018060405250810190610d829190611098565b610dfd6002604051610db7907f72697363305f67726f746831362e566572696679696e674b65792e49430000008152601d0190565b602060405180830381855afa158015610dd4573d6000803e3d6000fd5b5050506040513d601f19601f82011682018060405250810190610df79190611098565b88610e93565b6040805160208101979097528601949094526060850192909252608084015260a083015260c0820152600560f81b60e082015260e20160408051601f1981840301815290829052610e4d916110e1565b602060405180830381855afa158015610e6a573d6000803e3d6000fd5b5050506040513d601f19601f82011682018060405250810190610e8d9190611098565b91505090565b600080805b8351811015610eed57610ee385858360018851610eb5919061110a565b610ebf919061110a565b81518110610ecf57610ecf6110f4565b602002602001015184610ef760201b60201c565b9150600101610e98565b5090505b92915050565b604080516002808252606082018352600092839291906020830190803683370190505090508381600081518110610f3057610f306110f4565b6020026020010181815250508281600181518110610f5057610f506110f4565b6020908102919091010152610f658582610f6e565b95945050505050565b60408051600080825260208201909252610f89848483610f91565b949350505050565b600080610fa4845161103d60201b60201c565b9050600060088261ffff16901c60088361ffff16901b1760f01b9050600286868684604051602001610fd9949392919061112b565b60408051601f1981840301815290829052610ff3916110e1565b602060405180830381855afa158015611010573d6000803e3d6000fd5b5050506040513d601f19601f820116820180604052508101906110339190611098565b9695505050505050565b600061ffff821115611070576040516306dfcc6560e41b8152601060048201526024810183905260440160405180910390fd5b5090565b6000806040838503121561108757600080fd5b505080516020909101519092909150565b6000602082840312156110aa57600080fd5b5051919050565b6000815160005b818110156110d257602081850181015186830152016110b8565b50600093019283525090919050565b60006110ed82846110b1565b9392505050565b634e487b7160e01b600052603260045260246000fd5b81810381811115610ef157634e487b7160e01b600052601160045260246000fd5b84815260006020820185516020870160005b8281101561115b57815184526020938401939091019060010161113d565b50505061116881866110b1565b6001600160f01b031994909416845250506002909101949350505050565b60805160a05160c05160e0516113b26111e0600039600081816087015281816107df015261084401526000818160e1015261091d01526000818161013901526108e401526000818161017901526108bc01526113b26000f3fe608060405234801561001057600080fd5b506004361061007d5760003560e01c806334baeab91161005b57806334baeab9146101115780638989fa2e146101345780639181e4b114610174578063ab750e751461019b57600080fd5b8063053c238d146100825780631599ead5146100c7578063258038e2146100dc575b600080fd5b6100a97f000000000000000000000000000000000000000000000000000000000000000081565b6040516001600160e01b031990911681526020015b60405180910390f35b6100da6100d5366004610ee3565b6101ae565b005b6101037f000000000000000000000000000000000000000000000000000000000000000081565b6040519081526020016100be565b61012461011f366004610f36565b6101c8565b60405190151581526020016100be565b61015b7f000000000000000000000000000000000000000000000000000000000000000081565b6040516001600160801b031990911681526020016100be565b61015b7f000000000000000000000000000000000000000000000000000000000000000081565b6100da6101a9366004610f9d565b61079a565b6101c56101bb828061101e565b83602001356107bc565b50565b6000610728565b7f30644e72e131a029b85045b68181585d2833e84879b9709143e1f593f000000181106101c5576000805260206000f35b600060405183815284602082015285604082015260408160608360076107d05a03fa915081610233576000805260206000f35b825160408201526020830151606082015260408360808360066107d05a03fa91505080610264576000805260206000f35b5050505050565b7f12ac9a25dcd5e1a832a9061a082c15dd1d61aa9c4d553505739d0f5d65dc3be485527f025aa744581ebe7ad91731911c898569106ff5a2d30f3eee2b23c60ee980acd460208601526000608086018661030887357f2e32a094b7589554f7bc357bf63481acd2d55555c203383782a4650787ff66427f0707b920bc978c02f292fae2036e057be54294114ccc3c8769d883f688a1423f84610200565b61035860208801357f2ede7c9acf48cf3a3729fa3d68714e2a8435d4fa6db8f7f409c153b1fcdf9b8b7f0bca36e2cbe6394b3e249751853f961511011c7148e336f4fd974644850fc34784610200565b6103a860408801357f2b91a26aa92e1b6f5722949f192a81c850d586d81a60157f3e9cf04f679cccd67f1b8af999dbfbb3927c091cc2aaf201e488cbacc3e2c6b6fb5a25f9112e04f2a784610200565b6103f860608801357f2fe520ad2020aab9cbba817fcbb9a863b8a76ff88f14f912c5e71665b2ad5e827f2b5f494ed674235b8ac1750bdfd5a7615f002d4a1dcefeddd06eda5a076ccd0d84610200565b61044860808801357f214bfcff74f425f6fe8c0d07b307482d8bc8bb2f3608f68287aa01bd0b69e8097f0f1c3c0d5d9da0fa03666843cde4e82e869ba5252fce3c25d5940320b1c4d49384610200565b50823581527f30644e72e131a029b85045b68181585d97816a916871ca8d3c208c16d87cfd4760208401357f30644e72e131a029b85045b68181585d97816a916871ca8d3c208c16d87cfd4703066020820152833560408201526020840135606082015260408401356080820152606084013560a08201527f2d4d9aa7e302d9df41749d5507949d05dbea33fbb16c643b22f599a2be6df2e260c08201527f14bedd503c37ceb061d8ec60209fe345ce89830a19230301f076caff004d192660e08201527f0967032fcbf776d1afc985f88877f182d38480a653f2decaa9794cbc3bf3060c6101008201527f0e187847ad4c798374d0d6732bf501847dd68bc0e071241e0213bc7fc13db7ab6101208201527f304cfbd1e08a704a99f5e847d93f8c3caafddec46b7a0d379da69a4d112346a76101408201527f1739c1b1a457a8c7313123d24d2f9192f896b7c63eea05a9d57f06547ad0cec8610160820152600087015161018082015260206000018701516101a08201527f198e9393920d483a7260bfb731fb5d25f1aa493335a9e71297e485b7aef312c26101c08201527f1800deef121f1e76426a00665e5c4479674322d4f75edadd46debd5cd992f6ed6101e08201527f090689d0585ff075ec9e99ad690c3395bc4b313370b38ef355acdadcd122975b6102008201527f12c85ea5db8c6deb4aab71808dcb408fe3d1e7690c43d37b4ce6cc0166fa7daa610220820152843561024082015260208501356102608201527f03b03cd5effa95ac9bee94f1f5ef907157bda4812ccf0b4c91f42bb629f83a1c6102808201527f1aa085ff28179a12d922dba0547057ccaae94b9d69cfaa4e60401fea7f3e03336102a08201527f110c10134f200b19f6490846d518c9aea868366efb7228ca5c91d2940d0307626102c08201527f1e60f31fcbf757e837e867178318832d0b2d74d59e2fea1c7142df187d3fc6d36102e08201526020816103008360086107d05a03fa9051169695505050505050565b604051610380810160405261074060008401356101cf565b61074d60208401356101cf565b61075a60408401356101cf565b61076760608401356101cf565b61077460808401356101cf565b61078160a08401356101cf565b61078e818486888a61026b565b90508060005260206000f35b6107b684846107b16107ac86866109d7565b610b40565b6107bc565b50505050565b6107ca60046000848661106c565b6107d391611096565b6001600160e01b0319167f00000000000000000000000000000000000000000000000000000000000000006001600160e01b031916146108775761081b60046000848661106c565b61082491611096565b604051632e2ce35360e21b81526001600160e01b031991821660048201527f0000000000000000000000000000000000000000000000000000000000000000909116602482015260440160405180910390fd5b60008061088383610c9f565b90925090506000610897856004818961106c565b8101906108a49190611190565b8051602080830151604080850151815160a0810183527f0000000000000000000000000000000000000000000000000000000000000000608090811c82527f0000000000000000000000000000000000000000000000000000000000000000811c9582019590955289851c8184015288851c60608201527f00000000000000000000000000000000000000000000000000000000000000009481019490945290516334baeab960e01b815294955060009430946334baeab99461096d9491939192600401611277565b602060405180830381865afa15801561098a573d6000803e3d6000fd5b505050506040513d601f19601f820116820180604052508101906109ae91906112fc565b9050806109ce5760405163439cc0cd60e01b815260040160405180910390fd5b50505050505050565b6109df610e9e565b6040518060a00160405280848152602001600280604051610a17907072697363302e53797374656d537461746560781b815260110190565b602060405180830381855afa158015610a34573d6000803e3d6000fd5b5050506040513d601f19601f82011682018060405250810190610a57919061131e565b60408051602081019290925260009082018190526060820152600160f81b606482015260660160408051601f1981840301815290829052610a9791611337565b602060405180830381855afa158015610ab4573d6000803e3d6000fd5b5050506040513d601f19601f82011682018060405250810190610ad7919061131e565b8152602001604051806040016040528060006002811115610afa57610afa611366565b8152602001600060ff1681525081526020016000801b8152602001610b3560405180604001604052808681526020016000801b815250610e06565b905290505b92915050565b6000600280604051610b6a907172697363302e52656365697074436c61696d60701b815260120190565b602060405180830381855afa158015610b87573d6000803e3d6000fd5b5050506040513d601f19601f82011682018060405250810190610baa919061131e565b60608401518451602086015160808701516040880151516018906002811115610bd557610bd5611366565b60408a810151602090810151825191820199909952908101969096526060860194909452608085019290925260a084015263ffffffff909116901b60e01b6001600160e01b03191660c082015260f89190911b6001600160f81b03191660c4820152600160fa1b60c882015260ca015b60408051601f1981840301815290829052610c5f91611337565b602060405180830381855afa158015610c7c573d6000803e3d6000fd5b5050506040513d601f19601f82011682018060405250810190610b3a919061131e565b60008080610dec8460008190506008817eff00ff00ff00ff00ff00ff00ff00ff00ff00ff00ff00ff00ff00ff00ff00ff16901b6008827fff00ff00ff00ff00ff00ff00ff00ff00ff00ff00ff00ff00ff00ff00ff00ff0016901c1790506010817dffff0000ffff0000ffff0000ffff0000ffff0000ffff0000ffff0000ffff16901b6010827fffff0000ffff0000ffff0000ffff0000ffff0000ffff0000ffff0000ffff000016901c1790506020817bffffffff00000000ffffffff00000000ffffffff00000000ffffffff16901b6020827fffffffff00000000ffffffff00000000ffffffff00000000ffffffff0000000016901c17905060408177ffffffffffffffff0000000000000000ffffffffffffffff16901b60408277ffffffffffffffff0000000000000000ffffffffffffffff1916901c179050608081901b608082901c179050919050565b608081901b956001600160801b0319909116945092505050565b6000600280604051610e2a906b1c9a5cd8cc0b93dd5d1c1d5d60a21b8152600c0190565b602060405180830381855afa158015610e47573d6000803e3d6000fd5b5050506040513d601f19601f82011682018060405250810190610e6a919061131e565b83516020808601516040805192830194909452928101919091526060810191909152600160f91b6080820152608201610c45565b6040805160a08101825260008082526020820152908101610ecf604080518082019091526000808252602082015290565b815260006020820181905260409091015290565b600060208284031215610ef557600080fd5b813567ffffffffffffffff811115610f0c57600080fd5b820160408185031215610f1e57600080fd5b9392505050565b8060408101831015610b3a57600080fd5b6000806000806101a08587031215610f4d57600080fd5b610f578686610f25565b935060c0850186811115610f6a57600080fd5b604086019350610f7a8782610f25565b925050856101a086011115610f8e57600080fd5b50919490935090916101000190565b60008060008060608587031215610fb357600080fd5b843567ffffffffffffffff811115610fca57600080fd5b8501601f81018713610fdb57600080fd5b803567ffffffffffffffff811115610ff257600080fd5b87602082840101111561100457600080fd5b602091820198909750908601359560400135945092505050565b6000808335601e1984360301811261103557600080fd5b83018035915067ffffffffffffffff82111561105057600080fd5b60200191503681900382131561106557600080fd5b9250929050565b6000808585111561107c57600080fd5b8386111561108957600080fd5b5050820193919092039150565b80356001600160e01b031981169060048410156110c7576001600160e01b0319600485900360031b81901b82161691505b5092915050565b634e487b7160e01b600052604160045260246000fd5b6040516060810167ffffffffffffffff81118282101715611107576111076110ce565b60405290565b604051601f8201601f1916810167ffffffffffffffff81118282101715611136576111366110ce565b604052919050565b600082601f83011261114f57600080fd5b611159604061110d565b80604084018581111561116b57600080fd5b845b8181101561118557803584526020938401930161116d565b509095945050505050565b60006101008284031280156111a457600080fd5b5060006111af6110e4565b6111b9858561113e565b815284605f8501126111c9578182fd5b60406111d48161110d565b8060c08701888111156111e5578586fd5b6040880195505b8086101561120f576111fe898761113e565b8352948301946020909201916111ec565b81602086015261121f898261113e565b60408601525092979650505050505050565b8060005b60028110156107b6578151845260209384019390910190600101611235565b8060005b60058110156107b6578151845260209384019390910190600101611258565b6101a081016112868287611231565b604082018560005b60028110156112d55781518360005b60028110156112bc57825182526020928301929091019060010161129d565b505050604092909201916020919091019060010161128e565b5050506112e560c0830185611231565b6112f3610100830184611254565b95945050505050565b60006020828403121561130e57600080fd5b81518015158114610f1e57600080fd5b60006020828403121561133057600080fd5b5051919050565b6000825160005b81811015611358576020818601810151858301520161133e565b506000920191825250919050565b634e487b7160e01b600052602160045260246000fdfea26469706673582212202ebedb50ffa48da2bb740bc9021bd41915f3c5ee4fd90d7069414a11e02a4e6064736f6c634300081a0033","linkReferences":{}},"methodIdentifiers":{"athleteId()":"637b8b65","deadline()":"29dcb0cf","failureAddress()":"d729ca72","maxTime()":"22e67e71","prover()":"32a8f30f","shiftOffset(bytes,uint256,uint256)":"e5e22773","successAddress()":"0fe9bb9a","timeoutClaim()":"de6deb2b","verifier()":"2b7ac3f3","verify(((bytes4,bytes32[8],uint8),bytes32,uint256,(address,bytes4,uint256,bytes32)),int256,int256)":"7b1e5d75"},"id":55}