{"abi":[{"type":"function","name":"main","inputs":[{"name":"webProof","type":"tuple","internalType":"struct WebProof","components":[{"name":"webProofJson","type":"string","internalType":"string"}]},{"name":"account","type":"address","internalType":"address"}],"outputs":[{"name":"","type":"tuple","internalType":"struct Proof","components":[{"name":"seal","type":"tuple","internalType":"struct Seal","components":[{"name":"verifierSelector","type":"bytes4","internalType":"bytes4"},{"name":"seal","type":"bytes32[8]","internalType":"bytes32[8]"},{"name":"mode","type":"uint8","internalType":"enum ProofMode"}]},{"name":"callGuestId","type":"bytes32","internalType":"bytes32"},{"name":"length","type":"uint256","internalType":"uint256"},{"name":"callAssumptions","type":"tuple","internalType":"struct CallAssumptions","components":[{"name":"proverContractAddress","type":"address","internalType":"address"},{"name":"functionSelector","type":"bytes4","internalType":"bytes4"},{"name":"settleBlockNumber","type":"uint256","internalType":"uint256"},{"name":"settleBlockHash","type":"bytes32","internalType":"bytes32"}]}]},{"name":"","type":"int256","internalType":"int256"},{"name":"","type":"int256","internalType":"int256"}],"stateMutability":"view"},{"type":"function","name":"proof","inputs":[],"outputs":[{"name":"","type":"tuple","internalType":"struct Proof","components":[{"name":"seal","type":"tuple","internalType":"struct Seal","components":[{"name":"verifierSelector","type":"bytes4","internalType":"bytes4"},{"name":"seal","type":"bytes32[8]","internalType":"bytes32[8]"},{"name":"mode","type":"uint8","internalType":"enum ProofMode"}]},{"name":"callGuestId","type":"bytes32","internalType":"bytes32"},{"name":"length","type":"uint256","internalType":"uint256"},{"name":"callAssumptions","type":"tuple","internalType":"struct CallAssumptions","components":[{"name":"proverContractAddress","type":"address","internalType":"address"},{"name":"functionSelector","type":"bytes4","internalType":"bytes4"},{"name":"settleBlockNumber","type":"uint256","internalType":"uint256"},{"name":"settleBlockHash","type":"bytes32","internalType":"bytes32"}]}]}],"stateMutability":"pure"},{"type":"function","name":"setBlock","inputs":[{"name":"blockNo","type":"uint256","internalType":"uint256"}],"outputs":[],"stateMutability":"nonpayable"},{"type":"function","name":"setChain","inputs":[{"name":"chainId","type":"uint256","internalType":"uint256"},{"name":"blockNo","type":"uint256","internalType":"uint256"}],"outputs":[],"stateMutability":"nonpayable"},{"type":"error","name":"FailedInnerCall","inputs":[]}],"bytecode":{"object":"0x6080604052348015600f57600080fd5b506108ae8061001f6000396000f3fe608060405234801561001057600080fd5b506004361061004c5760003560e01c806387cea3ae14610051578063c822d5ef14610066578063faf924cf14610091578063ffbc5638146100a6575b600080fd5b61006461005f36600461043d565b6100b9565b005b610079610074366004610456565b610133565b60405161008893929190610576565b60405180910390f35b61009961018a565b6040516100889190610598565b6100646100b43660046105a7565b61019f565b6040516343e751d760e11b8152600481018290527376dc9aa45aa006a0f63942d8f9f21bd4537972a3906387cea3ae906024016020604051808303816000875af115801561010b573d6000803e3d6000fd5b505050506040513d601f19601f8201168201806040525081019061012f91906105c9565b5050565b61013b6103ab565b600080600061016b6040518060600160405280603881526020016108416038913961016588610683565b90610224565b90506101f263090035fd61017d61018a565b9891975095509350505050565b6101926103ab565b61019a61032a565b905090565b60405160016208753960e31b0319815260048101839052602481018290527376dc9aa45aa006a0f63942d8f9f21bd4537972a39063ffbc5638906044016020604051808303816000875af11580156101fb573d6000803e3d6000fd5b505050506040513d601f19601f8201168201806040525081019061021f91906105c9565b505050565b6040805180820190915260608082526020820152825160405160009182916101009161024f9161074e565b600060405180830381855afa9150503d806000811461028a576040519150601f19603f3d011682016040523d82523d6000602084013e61028f565b606091505b509150915061029e828261033f565b506000818060200190518101906102b5919061076a565b80519091506102c590869061035b565b6103055760405162461bcd60e51b815260206004820152600d60248201526c125b98dbdc9c9958dd08155493609a1b604482015260640160405180910390fd5b6040805180820182529082015181526060909101516020820152925050505b92915050565b6103326103ab565b61033a6103ab565b919050565b6060826103545761034f82610382565b610324565b5080610324565b60008151835114801561037b575081805190602001208380519060200120145b9392505050565b8051156103925780518082602001fd5b604051630a12f52160e11b815260040160405180910390fd5b60405180608001604052806103be6103f7565b81526000602080830182905260408084018390528051608081018252838152918201839052810182905260608181019290925291015290565b6040805160608101909152600081526020810161041261041e565b81526020016000905290565b6040518061010001604052806008906020820280368337509192915050565b60006020828403121561044f57600080fd5b5035919050565b6000806040838503121561046957600080fd5b823567ffffffffffffffff81111561048057600080fd5b83016020818603121561049257600080fd5b915060208301356001600160a01b03811681146104ae57600080fd5b809150509250929050565b805180516001600160e01b031916835260208082015190840160005b60088110156104f45782518252602092830192909101906001016104d5565b505050604001516002811061051957634e487b7160e01b600052602160045260246000fd5b61012083015260208181015161014084015260408083015161016085015260609283015180516001600160a01b0316610180860152918201516001600160e01b0319166101a08501528101516101c084015201516101e090910152565b610240810161058582866104b9565b6102008201939093526102200152919050565b610200810161032482846104b9565b600080604083850312156105ba57600080fd5b50508035926020909101359150565b6000602082840312156105db57600080fd5b8151801515811461037b57600080fd5b634e487b7160e01b600052604160045260246000fd5b6040516080810167ffffffffffffffff81118282101715610624576106246105eb565b60405290565b604051601f8201601f1916810167ffffffffffffffff81118282101715610653576106536105eb565b604052919050565b600067ffffffffffffffff821115610675576106756105eb565b50601f01601f191660200190565b60006020823603121561069557600080fd5b6040516020810167ffffffffffffffff811182821017156106b8576106b86105eb565b604052823567ffffffffffffffff8111156106d257600080fd5b830136601f8201126106e357600080fd5b80356106f66106f18261065b565b61062a565b81815236602083850101111561070b57600080fd5b8160208401602083013760009181016020019190915282525092915050565b60005b8381101561074557818101518382015260200161072d565b50506000910152565b6000825161076081846020870161072a565b9190910192915050565b60006020828403121561077c57600080fd5b815167ffffffffffffffff81111561079357600080fd5b8201601f810184136107a457600080fd5b6107ac610601565b8060808301868111156107be57600080fd5b835b8181101561083457805167ffffffffffffffff8111156107df57600080fd5b8501601f810189136107f057600080fd5b80516107fe6106f18261065b565b8181528a602083850101111561081357600080fd5b61082482602083016020860161072a565b86525050602093840193016107c0565b5090969550505050505056fe68747470733a2f2f7777772e7374726176612e636f6d2f6174686c6574652f7365676d656e74732f32353938313937382f686973746f7279a26469706673582212206169e70f71d17e8ac217770fb90f55c8981430b91184e18535724f19600eea6164736f6c634300081a0033","linkReferences":{}},"methodIdentifiers":{"main((string),address)":"c822d5ef","proof()":"faf924cf","setBlock(uint256)":"87cea3ae","setChain(uint256,uint256)":"ffbc5638"},"id":53}